{
  "contractName": "StringUsage",
  "abi": [
    {
      "constant": false,
      "inputs": [
        {
          "name": "str",
          "type": "string"
        }
      ],
      "name": "len",
      "outputs": [
        {
          "name": "",
          "type": "uint256"
        }
      ],
      "payable": false,
      "stateMutability": "nonpayable",
      "type": "function"
    },
    {
      "constant": false,
      "inputs": [
        {
          "name": "str",
          "type": "string"
        },
        {
          "name": "target",
          "type": "string"
        },
        {
          "name": "count",
          "type": "int256"
        }
      ],
      "name": "remove",
      "outputs": [
        {
          "name": "",
          "type": "string"
        }
      ],
      "payable": false,
      "stateMutability": "nonpayable",
      "type": "function"
    },
    {
      "constant": false,
      "inputs": [
        {
          "name": "str",
          "type": "string"
        },
        {
          "name": "a",
          "type": "string"
        },
        {
          "name": "b",
          "type": "string"
        },
        {
          "name": "count",
          "type": "int256"
        }
      ],
      "name": "replace",
      "outputs": [
        {
          "name": "",
          "type": "string"
        }
      ],
      "payable": false,
      "stateMutability": "nonpayable",
      "type": "function"
    },
    {
      "constant": false,
      "inputs": [
        {
          "name": "str",
          "type": "string"
        },
        {
          "name": "target",
          "type": "string"
        },
        {
          "name": "pos",
          "type": "uint256"
        }
      ],
      "name": "find",
      "outputs": [
        {
          "name": "",
          "type": "int256"
        }
      ],
      "payable": false,
      "stateMutability": "nonpayable",
      "type": "function"
    },
    {
      "constant": false,
      "inputs": [
        {
          "name": "str",
          "type": "string"
        },
        {
          "name": "target",
          "type": "string"
        }
      ],
      "name": "endWith",
      "outputs": [
        {
          "name": "",
          "type": "bool"
        }
      ],
      "payable": false,
      "stateMutability": "nonpayable",
      "type": "function"
    }
  ],
  "bytecode": "0x6060604052341561000f57600080fd5b610a6e8061001e6000396000f30060606040526004361061006d576000357c0100000000000000000000000000000000000000000000000000000000900463ffffffff168063026294a714610072578063454d1f27146100e3578063514ba1ea14610205578063860fb0c41461036a578063a183f93914610427575b600080fd5b341561007d57600080fd5b6100cd600480803590602001908201803590602001908080601f016020809104026020016040519081016040528093929190818152602001838380828437820191505050505050919050506104df565b6040518082815260200191505060405180910390f35b34156100ee57600080fd5b61018a600480803590602001908201803590602001908080601f0160208091040260200160405190810160405280939291908181526020018383808284378201915050505050509190803590602001908201803590602001908080601f016020809104026020016040519081016040528093929190818152602001838380828437820191505050505050919080359060200190919050506104f1565b6040518080602001828103825283818151815260200191508051906020019080838360005b838110156101ca5780820151818401526020810190506101af565b50505050905090810190601f1680156101f75780820380516001836020036101000a031916815260200191505b509250505060405180910390f35b341561021057600080fd5b6102ef600480803590602001908201803590602001908080601f0160208091040260200160405190810160405280939291908181526020018383808284378201915050505050509190803590602001908201803590602001908080601f0160208091040260200160405190810160405280939291908181526020018383808284378201915050505050509190803590602001908201803590602001908080601f0160208091040260200160405190810160405280939291908181526020018383808284378201915050505050509190803590602001909190505061050d565b6040518080602001828103825283818151815260200191508051906020019080838360005b8381101561032f578082015181840152602081019050610314565b50505050905090810190601f16801561035c5780820380516001836020036101000a031916815260200191505b509250505060405180910390f35b341561037557600080fd5b610411600480803590602001908201803590602001908080601f0160208091040260200160405190810160405280939291908181526020018383808284378201915050505050509190803590602001908201803590602001908080601f0160208091040260200160405190810160405280939291908181526020018383808284378201915050505050509190803590602001909190505061052b565b6040518082815260200191505060405180910390f35b341561043257600080fd5b6104c5600480803590602001908201803590602001908080601f0160208091040260200160405190810160405280939291908181526020018383808284378201915050505050509190803590602001908201803590602001908080601f01602080910402602001604051908101604052809392919081815260200183838082843782019150505050505091905050610541565b604051808215151515815260200191505060405180910390f35b60006104ea82610555565b9050919050565b6104f9610a2e565b6105048484846105f9565b90509392505050565b610515610a2e565b61052185858585610673565b9050949350505050565b600061053884848461082f565b90509392505050565b600061054d8383610850565b905092915050565b6000806000806000602086019350855192505b828110156105ed578084015160ff169150608082101561058d576001810190506105e8565b60e08210156105a1576002810190506105e7565b60f08210156105b5576003810190506105e6565b60f88210156105c9576004810190506105e5565b60fc8210156105dd576005810190506105e4565b6006810190505b5b5b5b5b610568565b80945050505050919050565b610601610a2e565b600080600080879350869250865191505b61061e84846000610870565b905060008112151561065b5761063584828461098d565b600086131561065657858060019003965050600186121561065557610665565b5b610660565b610665565b610612565b879450505050509392505050565b61067b610a2e565b6000806000806000806000806000808e96508d95508c94508d5199508c5198508e51975060008914156106b0578e9a5061081d565b898810156106c0578e9a5061081d565b6106cc87876000610870565b935060008412156106df578e9a5061081d565b888a101515610755575b60008412151561075057610706846020890101602087018b6109cc565b6107188760208b8701018b8d0361098d565b60008c131561073c578b80600190039c505060008c141561073b578e9a5061081d565b5b61074987878b8701610870565b93506106e9565b610819565b61076f8a8a038b8a81151561076657fe5b04028901610a13565b925060009150600090505b6000841215156107f45761079b8260208501018260208a01018387036109cc565b808403820191506107b5602083850101602087018b6109cc565b8984019050888201915060008c13156107e0578b80600190039c505060008c14156107df576107f4565b5b6107ed87878c8701610870565b935061077a565b61080b8260208501018260208a0101838b036109cc565b80880382019150818352829e505b8e9a505b50505050505050505050949350505050565b6000806000859150849050610845828286610870565b925050509392505050565b600080825184510390508061086685858461082f565b1491505092915050565b60008060008060008060008851955089519450876020018a019950602089019850848811806108a0575084888701115b156108cd577fffffffffffffffffffffffffffffffffffffffffffffffffffffffffffffffff9650610980565b60018686030193506020861115610915578589205b80878c20146108ff5760018b019a506001890198508489106108e2575b508388101561091057879650610980565b61095c565b6001866020036101000a031991508189511692505b8388101561095b57818a5116905060018a0199508083141561094e57879650610980565b878060010198505061092a565b5b7fffffffffffffffffffffffffffffffffffffffffffffffffffffffffffffffff96505b5050505050509392505050565b6000835190506020840193508183018110156109a8576109c6565b6109bd838501838587010185858503036109cc565b81810360208503525b50505050565b5b602081101515610a0e57815183526020820191506020830192506001816020036101000a0380198351168185511680821786525050506020810390506109cd565b505050565b60006040519050818152602082018101604052809050919050565b6020604051908101604052806000815250905600a165627a7a723058202db0d873745d75502ccf77609f9bbc2676e22b705d190f00cb78fa1a810a09cb0029",
  "source": "pragma solidity ^0.4.18;\nimport \"./Lib/StringsLib.sol\";\n\ncontract StringUsage{\n    \n    function replace(string str, string a, string b, int count) returns(string){\n        return StringsLib.replace(str, a, b, count);\n    }\n    \n    function endWith(string str, string target)returns(bool){\n        return StringsLib.endwith(str, target);\n    }\n    \n    function find(string str, string target, uint pos)returns(int){\n        return StringsLib.find(str, target, pos);\n    }\n    \n    function remove(string str, string target, int count)returns(string){\n        return StringsLib.remove(str, target, count);\n    }\n    \n    function len(string str)returns (uint){\n        return StringsLib.len(str);\n    }\n}\n\n",
  "sourcePath": "/data/workspace/solc/first/contracts/StringUsage.sol",
  "compiler": {
    "name": "solc",
    "version": "0.4.18+commit.9cf6e910.Emscripten.clang"
  },
  "schemaVersion": "1.0.1",
  "updatedAt": "2018-02-03T01:17:09.352Z"
}