{
  "contractName": "StringsLib",
  "abi": [
    {
      "constant": false,
      "inputs": [
        {
          "name": "r",
          "type": "string"
        },
        {
          "name": "l",
          "type": "string"
        }
      ],
      "name": "concat",
      "outputs": [
        {
          "name": "",
          "type": "string"
        }
      ],
      "payable": false,
      "stateMutability": "nonpayable",
      "type": "function"
    },
    {
      "anonymous": false,
      "inputs": [
        {
          "indexed": false,
          "name": "v",
          "type": "uint256"
        },
        {
          "indexed": false,
          "name": "k",
          "type": "string"
        }
      ],
      "name": "P",
      "type": "event"
    }
  ],
  "bytecode": "0x6060604052341561000f57600080fd5b6102938061001e6000396000f300606060405260043610610041576000357c0100000000000000000000000000000000000000000000000000000000900463ffffffff16806389c19ddb14610046575b600080fd5b6100d9600480803590602001908201803590602001908080601f0160208091040260200160405190810160405280939291908181526020018383808284378201915050505050509190803590602001908201803590602001908080601f01602080910402602001604051908101604052809392919081815260200183838082843782019150505050505091905050610154565b6040518080602001828103825283818151815260200191508051906020019080838360005b838110156101195780820151818401526020810190506100fe565b50505050905090810190601f1680156101465780820380516001836020036101000a031916815260200191505b509250505060405180910390f35b61015c610253565b60008060008061016a610253565b87945086935061017a8585610191565b925082519150829050809550505050505092915050565b600080600080600080875194508651935060208801975060208701965084840192506101bc836101f1565b91506020820190506101cf81898761020c565b84810190506101df81888661020c565b81519250819550505050505092915050565b60006040519050818152602082018101604052809050919050565b5b60208110151561024e57815183526020820191506020830192506001816020036101000a03801983511681855116808217865250505060208103905061020d565b505050565b6020604051908101604052806000815250905600a165627a7a72305820168fe93265d4aeb1ebc9f21a9cc1b786b5eb6d57b57677c736cd4b87410145620029",
  "source": "pragma solidity ^0.4.18;\n\nimport \"./Unsafe/MemoryLib.sol\";\n\nlibrary StringsLib{\n    function concat(string r, string l)public  returns(string){\n        uint ptr_r;\n        uint ptr_l;\n        assembly{\n            ptr_r := r\n            ptr_l := l\n        }\n        uint ptr = MemoryLib.memcat(ptr_r, ptr_l);\n        uint len;\n        assembly{\n            len := mload(ptr)\n        }\n        string memory rt;\n        assembly{\n            rt := ptr\n        }\n        return rt;\n    }    \n    \n    function find(string str, string target, uint pos)internal  returns(int){\n        uint ptr_str;\n        uint ptr_target;\n        assembly{\n            ptr_str := str\n            ptr_target := target\n        }\n        return MemoryLib.find(ptr_str, ptr_target, pos);\n    } \n\n    function remove(string str, string target, int count)internal returns(string){\n        uint ptr_str;\n        uint ptr_target;\n        uint len_target;\n        assembly{\n            ptr_str := str\n            ptr_target := target\n            len_target := mload(target)\n        }\n        for(;;){\n            int pos = MemoryLib.find(ptr_str, ptr_target, 0);\n            if(pos>=0){\n                MemoryLib.memcut(ptr_str, uint(pos), len_target);\n                if(count>0){\n                    count--;\n                    if(count<1){\n                        break;\n                    }\n                }\n                continue;\n            }\n            break;\n        }\n        return str;\n    }    \n\n    function contains(string str, string target)internal returns(bool){\n        return find(str, target, 0) > -1;\n    }\n\n    function startwith(string str, string target)internal returns(bool){\n         return find(str, target, 0) == 0 ;\n    }\n\n    function endwith(string str, string target)internal returns(bool){\n         uint pos = bytes(str).length-bytes(target).length;\n         return find(str, target, pos) == int(pos);  \n    }\n    \n    event P(uint v, string k);\n    \n    function replace(string str, string a, string b, int count)internal returns(string){\n        uint len_a;\n        uint len_b;\n        uint len_str;\n        uint ptr_str;\n        uint ptr_a;\n        uint ptr_b;\n   \n        assembly{\n            ptr_str := str\n            ptr_a := a\n            ptr_b := b\n            len_a := mload(a)\n            len_b := mload(b)\n            len_str := mload(str)\n        }\n        if(len_b == 0){\n            return str;\n        }\n        if(len_str < len_a){\n            return str;\n        }\n        int pos = MemoryLib.find(ptr_str, ptr_a, 0);\n        if(pos<0){\n            return str;\n        }\n        if(len_a>=len_b){\n            for(\n                ;\n                pos>=0; \n                pos = MemoryLib.find(ptr_str, ptr_a, uint(pos)+len_b)\n            ){\n                MemoryLib.memcpy(ptr_str+0x20 + uint(pos), ptr_b+0x20, len_b);\n                MemoryLib.memcut(ptr_str, uint(pos)+len_b+0x20, len_a - len_b);\n                if(count>0){\n                    count--;\n                    if(count==0){\n                        return str;\n                    }\n                }\n            }\n        }else{\n            uint ptr  = MemoryLib.calloc(len_str + (len_str/len_a)*(len_b-len_a));\n            uint size = 0;\n            int last_cpy_pos = 0;\n            for( \n                ;\n                pos>=0;\n                pos = MemoryLib.find(ptr_str, ptr_a, uint(pos)+len_a)\n            ){\n                MemoryLib.memcpy(ptr+0x20+size, ptr_str+0x20 + uint(last_cpy_pos), uint(pos-last_cpy_pos));\n                size += uint(pos-last_cpy_pos);\n                MemoryLib.memcpy(ptr+size+0x20, ptr_b+0x20, len_b);\n                last_cpy_pos = pos + int(len_a);\n                size += uint(len_b);\n                if(count>0){\n                    count--;\n                    if(count==0){\n                        break;\n                    }\n                }\n            }\n            MemoryLib.memcpy(ptr+0x20+size, ptr_str+0x20+uint(last_cpy_pos), len_str-uint(last_cpy_pos));\n            size += len_str-uint(last_cpy_pos);\n            assembly{\n                mstore(ptr, size)\n                str := ptr\n            }\n        }\n        return str;\n    }\n    \n    function len(string str)internal returns(uint){\n        uint ptr;\n        uint len;\n        assembly{\n            ptr := add(str, 0x20)\n            len := mload(str)\n        }\n        uint val;\n        uint pos;\n        for(;pos<len;){\n            assembly{\n                val := and(0xff, mload(add(ptr, pos)))\n            }\n            if (val < 0x80) {\n                pos += 1;\n            } else if(val < 0xE0) {\n                pos += 2;\n            } else if(val < 0xF0) {\n                pos += 3;\n            } else if(val < 0xF8) {\n                pos += 4;\n            } else if(val < 0xFC) {\n                pos += 5;\n            } else {\n                pos += 6;\n            }\n        }\n        return pos;\n    }\n}\n",
  "sourcePath": "/data/workspace/solc/first/contracts/Lib/StringsLib.sol",
  "compiler": {
    "name": "solc",
    "version": "0.4.18+commit.9cf6e910.Emscripten.clang"
  },
  "schemaVersion": "1.0.1",
  "updatedAt": "2018-02-03T01:01:04.212Z"
}